:1000000049C07DC062C061C060C05FC05EC05DC0ED
:100010005CC05BC05AC059C058C057C056C055C01C
:1000200054C053C052C051C050C04FC04EC04DC04C
:100030004CC04BC000C2FBC1F6C1F1C1ECC1E7C16D
:10004000E2C1090212000101008019090400000048
:100050000000000012011001FF000008C016DC05BE
:100060000301010200010E0355005300420061002C
:10007000730070001C037700770077002E00660085
:1000800069007300630068006C002E006400650066
:100090000403090411241FBECFEFD4E0DEBFCDBF9F
:1000A00011E0A0E0B1E0E6E8FEE002C005900D92AC
:1000B000A230B107D9F721E0A2E0B1E001C01D9262
:1000C000A734B207E1F796D5DCC69ACFA82FB92F8F
:1000D00080E090E041E050EA60956F5F58F42D9128
:1000E00038EF82279795879510F0842795273F5FF3
:1000F000C8F3F3CF0895EADF8D939D930895CF93CE
:10010000CFB7CF93C395189BE9F7189B09C0189BED
:1001100007C0189B05C0189B03C0189B01C0A1C055
:10012000DF93C0912A01DD27CF5CDE4F189B02C010
:10013000DF91EBCF2F930F931F9303B12FEF00FBB2
:1001400020F94F933F9313B14FEF012700FB21F9A3
:100150003BE031C04E7F012F13B1216028C0102F2A
:100160004D7F2260000003B129C04B7F2460012F26
:10017000000013B12BC013B1477F28602AC04F7E07
:1001800003B120612CC04F7D13B120622FC04F7B83
:1001900003B1206432C0422703B149934FEF0000FE
:1001A000102710FB20F913B11370C9F1297F91F2C8
:1001B000012700FB21F903B1237F89F2315058F167
:1001C000102710FB22F913B1277E79F2012700FBDB
:1001D00023F92F7C81F203B1102710FB24F92F792A
:1001E00071F200C013B1012700FB25F92F7359F2FA
:1001F00000C003B1102710FB26F9223040F200C0E6
:1002000013B1012700FB27F9243028F64F77206827
:1002100013B10000F9CF11E01CBB002717C03B5001
:100220003195C31BD04011E01CBB0881033CE9F0B1
:100230000B34D9F0209128011981110F1213EDCF41
:10024000093641F10D3211F0013E39F700932F01CB
:100250003F914F911F910F912F91DF91CCB3C0FD32
:1002600051CFCF91CFBFCF91189520912F0122234D
:1002700079F310912D01112311F5343012F13093DF
:100280002D012093290110912A013BE0311B30936D
:100290002A0117C000912D0101308CF40AE530913C
:1002A000010134FD10C000930101CDE1D1E00FC088
:1002B0002795A8F45150A9F4220F0000F9CF4AE580
:1002C00003C042ED01C0432FC4E1D0E032E014B1DD
:1002D0001360289A14B905B120E413E05F93012755
:1002E00056E005B9279520F4515021F4220FF9CF9B
:1002F000012756E000003B5A05B9D0F2279528F4B3
:10030000515029F4220F0000F9CF012756E027951C
:1003100005B920F4515021F4220FF9CF012756E0FE
:100320002991332305B921F60C7F10912E01110F6D
:10033000C651D04005B911F01093280111E01CBB43
:10034000016014B11C7F402F4C7F5F9100C000C042
:1003500005B914B945B97CCF882349F030E026B5FA
:1003600096B5921B9C33E0F33F5F3813F8CF0895A6
:100370008EBD0DB407FEFDCF8EB5089580911B0193
:100380008CBD809118018DBD0895E82F882309F454
:1003900056C0883040F188EB91E090931A01809329
:1003A000190110921801E930B1F018F4E830B9F0F1
:1003B0000BC0EB3029F0EC3039F481E08093180168
:1003C00081E580931B01089582E580931B0181E004
:1003D00080931801089582E580931B01089583E5B9
:1003E00080931B0108958FE292E090931A0180930D
:1003F00019018E2F90E0FC013197E730F10530F5BF
:10040000E65EFF4F099483E080931C01089586E027
:1004100080931C0108958CE080931C01089588E16D
:1004200080931C01089580E380931C01089580E669
:1004300080931C01089580EC80931C01089588EB43
:1004400091E090931A0180931901BECF089526B5CB
:1004500090911C0186B5821B8917E0F308951F93C4
:10046000CF93DF93182FD8E0C0E0112314F42B9A18
:1004700001C02B98110FCC0F1C99CF5F2D9AE7DF8D
:100480002D98E5DFD15089F78C2FDF91CF911F9107
:10049000089584B18C6284B92A982D98D8DF2A9A5D
:1004A000D6DF2A988091190190911A01885B9140BA
:1004B00009F464DF089584B1837D84B985B1837DB7
:1004C00085B91CBC0895CF93DF93C0E2E091190178
:1004D000F0911A018CEA0995E0911901F0911A0145
:1004E00083E50995E0911901F0911A0180E00995E1
:1004F000D82FE0911901F0911A0180E00995D335C8
:1005000089F01CBC2D9AA3DF2D98A1DF80911901E1
:1005100090911A01885B914009F430DFC150B1F627
:1005200081E001C080E0DF91CF910895CF92DF920A
:10053000EF92FF926B017C01862F8170880F880FEC
:10054000880FE0911901F0911A0180620995D70195
:10055000C601072E79E0B695A795979587957A9568
:10056000D1F7702DE0911901F0911A010995D70189
:10057000C601B695A79597958795E0911901F091D9
:100580001A010995E0911901F0911A0180E009958D
:10059000FF90EF90DF90CF900895CF92DF92EF928F
:1005A000FF92CF93DF936B017C01C42FD22F962F44
:1005B0009170892F880F880F880FE0911901F091B1
:1005C0001A0180640995D701C601072E79E0B69516
:1005D000A795979587957A95D1F7702DE091190198
:1005E000F0911A010995D701C601B695A79597957F
:1005F0008795E0911901F0911A010995E09119018F
:10060000F0911A018C2F0995DD23B9F0CF3721F431
:100610008FE0A2DE80E014C0D6B5CEE1C701B601FE
:1006200085DF8F3761F486B58D1B8D3310F0D6B51D
:10063000C150C111F3CF81E003C080E001C080E070
:10064000DF91CF91FF90EF90DF90CF900895CF9200
:10065000DF92EF92FF92CF93DF936B017C01C42F67
:10066000E0911901F0911A018CE40995D701C601B6
:10067000072E79E0B695A795979587957A95D1F746
:10068000702DE0911901F0911A010995D701C60169
:10069000B695A79597958795E0911901F0911A0164
:1006A0000995E0911901F0911A0180E00995CF3F79
:1006B00021F48FE051DE80E012C0D6B5CEE1C70153
:1006C000B60134DF8F3F51F486B58D1B8D3310F0AA
:1006D000D6B5C150C111F3CF81E001C080E0DF91F8
:1006E000CF91FF90EF90DF90CF900895CF93DF935D
:1006F000C82FD92FE0911901F0911A0180EA0995CC
:10070000E0911901F0911A018D2F0995E0911901DD
:10071000F0911A018C2F0995E0911901F0911A01BD
:1007200080E00995DF91CF9108951F93CF93DF93D8
:10073000D82F192FC62FE0911901F0911A0180ECE2
:100740000995E0911901F0911A01812F0995E09125
:100750001901F0911A018D2F0995E0911901F0917D
:100760001A018C2F09958EE1F7DD80E0DF91CF91A2
:100770001F9108950F931F93CF93DF93EC019981FD
:10078000913071F4329903C085E0FFDD03C08091A0
:100790000D01FBDD10920C0141987BDE80E007C16A
:1007A000923021F488DE419A80E001C1933021F536
:1007B000E0911901F0911A018A8109950FE011E089
:1007C000F8018083E0911901F0911A018B8109955C
:1007D000F8018183E0911901F0911A018C8109954A
:1007E000F8018283E0911901F0911A018D81099538
:1007F000F801838384E0DBC0943029F580910C01FB
:10080000811112C08B8190E0982F88272A81822B3A
:10081000092E000CAA0BBB0B8093080190930901D1
:10082000A0930A01B0930B018F8190E0982F882745
:100830002E81822B909307018093060182E08093A2
:100840000E018FEFB4C0973029F580910C01811112
:1008500012C08B8190E0982F88272A81822B092E45
:10086000000CAA0BBB0B8093080190930901A09385
:100870000A01B0930B018F8190E0982F88272E8179
:10088000822B909307018093060183E080930E01F1
:100890008FEF8DC0953029F416DE80930F0181E033
:1008A00086C09630D1F580910C01811112C08B81E8
:1008B00090E0982F88272A81822B092E000CAA0B02
:1008C000BB0B8093080190930901A0930A01B09398
:1008D0000B013C812D81822F8F7080930301822F29
:1008E000807FF0E18F9FC0011124830F911D9093B1
:1008F00005018093040120FD809302018F8190E027
:10090000982F88272E81822B9093070180930601D0
:1009100081E080930E018FEF4AC0983059F58091A5
:100920000C01811112C08B8190E0982F88272A81B9
:10093000822B092E000CAA0BBB0B8093080190930D
:100940000901A0930A01B0930B01109205011092C6
:100950000401109203018F8190E0982F88272E8147
:10096000822B909307018093060184E080930E010F
:100970008FEF1DC0993089F481E080930C018A814A
:100980009B81AC81BD818093080190930901A09364
:100990000A01B0930B0180E00AC09A3039F48A81D1
:1009A00080930D0110920F0181E001C080E02FE0E3
:1009B00031E030932C0120932B01DF91CF911F91D7
:1009C0000F910895DF92EF92FF920F931F93CF93B1
:1009D000DF938C0190910E019250923008F043C049
:1009E000D62E6623E1F1E8018FEF860F90E00196A5
:1009F000080F191F0F2EF8E0EF2EF1E0FF2EF02D5B
:100A000090910E01923059F46091080170910901A2
:100A100080910A0190910B0189DD888305C0F7015F
:100A20008081918163DE88834091080150910901A2
:100A300060910A0170910B014F5F5F4F6F4F7F4FC5
:100A4000409308015093090160930A0170930B01D0
:100A50002196C017D107A1F6F7E0FD1530F01092EE
:100A60000E018D2D03C08FEF01C08D2DDF91CF9131
:100A70001F910F91FF90EF90DF900895BF92CF925A
:100A8000DF92EF92FF920F931F93CF93DF938C012E
:100A900090910E01913021F4611106C0B12C9DC0DE
:100AA000943009F09CC0F8CFC801E8016150062FCE
:100AB00010E00F5F1F4F080F191FB12C0F2EF8E029
:100AC000EF2EF1E0FF2EF02D0F2EF4E0CF2EF1E00F
:100AD000DF2EF02D80910E01813099F58091040177
:100AE00090910501892B61F46091080170910901D1
:100AF00080910A0190910B0121E048814EDD26C0D2
:100B0000609108017091090180910A0190910B0197
:100B100020E0488142DD80910201815080930201F2
:100B2000811114C0609108017091090180910A013E
:100B300090910B0148818BDDF60180818093020149
:100B400005C06881F70180819181EFDD2091060168
:100B5000309107012150310930930701209306019C
:100B6000232B11F510920E018091030181FF17C014
:100B70008091020190E020910401309105018217DB
:100B8000930781F0609108017091090180910A0139
:100B900090910B0148815BDDBB24B39405C0BB245D
:100BA000B39402C0BB24B394409108015091090151
:100BB00060910A0170910B014F5F5F4F6F4F7F4F44
:100BC000409308015093090160930A0170930B014F
:100BD0002196C017D10709F07DCF8B2D01C08FEF73
:100BE000DF91CF911F910F91FF90EF90DF90CF9009
:100BF000BF9008951BB815B81AB88FEF84B99FEF4E
:100C000020E0822F8150F1F79150D9F714B883E09A
:100C100087B99EEF98B985BD2DD1789401D0FECFCC
:100C2000CF93DF9360912D0163500AF4AEC0209101
:100C30002A018CE090E0821B9109EC01CF5CDE4F31
:100C4000809129018D3209F08FC0683009F09BC076
:100C500083EC80931D018AE58093010110921701B6
:100C60008881807619F0CE0185DD6AC08A81109274
:100C700026019981911106C01092270126E231E0E8
:100C800082E05AC0953031F480932E0126E231E0A3
:100C900080E052C09630E1F59B81913041F484E5CB
:100CA00090E090932C0180932B0182E12DC0923033
:100CB00041F482E490E090932C0180932B0182E137
:100CC00023C09330F1F4811108C080E990E0909343
:100CD0002C0180932B0184E017C0813041F484E71C
:100CE00090E090932C0180932B018CE10DC0823019
:100CF00051F486E690E090932C0180932B018EE0D6
:100D000003C080E001C080E090E49093170118C018
:100D1000983079F0993031F48093300126E231E057
:100D200080E00AC081E09A3009F080E026E231E0FC
:100D300003C020E331E081E030932C0120932B01AC
:100D40008F3F41F4988199230CF48E8190E8909321
:100D5000170107C09F81911104C09E81981708F464
:100D6000892F809300010FC08091170188235CF4C4
:100D7000CE0184DE8F3F21F48EE18093010103C018
:100D800081111092000110922D018091010184FFC8
:100D90005AC0909100019F3F09F455C0C92F993066
:100DA00008F0C8E09C1B90930001EDE1F1E0908118
:100DB00088E889278083CC2309F453C080911701E8
:100DC000882334F46C2F8EE191E0FCDDC82F28C01D
:100DD00020912B0130912C0186FF10C0AEE1B1E0D3
:100DE000F9019C2F84918D9331969150D9F78FEF13
:100DF0008C0F90E00196280F391F0EC0D901EEE14B
:100E0000F1E09C2F8D9181939150E1F78FEF8C0F42
:100E100090E00196280F391F30932C0120932B016D
:100E2000C93058F46C2F8EE191E065D9CC5FCC309D
:100E300040F48FEF8093000104C08FEF8093000196
:100E4000CEE1C093010183B1837089F493E183B152
:100E5000837069F49150D9F710922E0110922801F5
:100E600006C060E08EE191E046D9C4E0E2CFDF91B8
:100E7000CF910895E9E6F0E0808183608083E89A6D
:060E80000895F894FFCF75
:020E8600FF5A11
:00000001FF
